:020000040800F2
:100000006858002085020008514300088D3500081B
:1000100081400008830C00087D4E000800000000AD
:10002000000000000000000000000000C501000802
:10003000ED0D00080000000021020008C146000884
:100040009F0200089F0200089F0200089F0200080C
:100050009F0200089F0200089F0200089F020008FC
:100060009F0200089F0200089F0200089F020008EC
:10007000310D00089F0200083D0D00089F02000896
:100080009F0200089F0200080D0B00089D0C00084D
:10009000850C0008910C00089F0200089F020008D0
:1000A0009F020008A94700089F0200089F0200085D
:1000B0009F020008B54700089F0200089F02000841
:1000C0009F0200089F0200089F0200089F0200088C
:1000D0009F020008FD4D00089F020008094E00081D
:1000E0009F0200089F0200089F0200089F0200086C
:1000F0009F0200089F0200089F0200089F0200085C
:100100009F0200089F0200089F0200089F0200084B
:100110009F0200089F0200089F020008C1470008D4
:100120009F0200089F0200089F0200089F0200082B
:100130009F0200089F0200089F020008C10C0008EF
:10014000A90C0008B50C00089F0200089F020008D7
:100150009F0200089F0200089F020008214E00082D
:100160009F0200089F0200089F0200089F020008EB
:100170009F0200089F0200089F0200080000000084
:100180009F0200089F0200089F0200089F020008CB
:100190009F0200089F0200089F0200089F020008BB
:1001A00000000000000000009F020008DFF810D0EF
:1001B00000F01CFC00480047A5690008AFF3008070
:1001C000685800202C4B19680868B0E8F04F80F39D
:1001D0000988BFF36F8F4FF0000080F311887047DC
:1001E0000000000008480068006880F308884FF0AD
:1001F000000080F3148862B661B6BFF34F8FBFF37F
:100200006F8F00DF00BF00BF08ED00E0DFF80C00DB
:10021000016841F470010160704700BF88ED00E0A3
:10022000EFF30980BFF36F8F134B1A681EF0100FA6
:1002300008BF20ED108A20E9F04F106009B44FF09C
:10024000500080F31188BFF34F8FBFF36F8F08F01A
:100250004FF84FF0000080F3118809BC1968086856
:10026000B0E8F04F1EF0100F08BFB0EC108A80F31A
:100270000988BFF36F8F704750000020EFF30580AF
:10028000704700000648804706480047FEE7FEE743
:10029000FEE7FEE7FEE7FEE7FEE7FEE7FEE7FEE736
:1002A0008D470008AD0100082DE9F05F05460020EC
:1002B00092469B4688460646814640241BE02846D7
:1002C00041464746224600F0A2FA53465A46C01A13
:1002D000914110D311461846224600F089FA2D1A92
:1002E00067EB01084F4622460120002100F080FA0A
:1002F00017EB00094E41201EA4F10104DFDC484643
:1003000031462A464346BDE8F09F00000649074AA9
:100310000868504343F239021044086040087047AF
:1003200001490860704700008C0100206D4EC641F5
:1003300040EA01039B0703D009E008C9121F08C067
:10034000042AFAD203E011F8013B00F8013B521EE7
:10035000F9D27047D2B201E000F8012B491EFBD25E
:1003600070470022F6E710B513460A4604461946C0
:10037000FFF7F0FF204610BD421E12F8013F002B90
:10038000FBD111F8013B02F8013B002BF9D170477A
:1003900070B5064604F0DEFD046805460A22002119
:1003A000304600F056FA2C6070BD2DE9FE4F8046B5
:1003B00081EA0300C00F0C46009021F0004123F0B9
:1003C0000045B8EB0200A94105D2404621469046BF
:1003D0001C460B46024623F00040104347D0270D31
:1003E000C7F30A00C3F30A510290401A0190402853
:1003F0006BDAC3F3130040F4801B0098924620B1DF
:100400000023D2EB030A63EB0B0B01985946C0F1B2
:100410004002504600F0ECF906460D46504659465B
:10042000019A00F004FA10EB08006141002487EA09
:10043000115284EAE7731A4340D0009A62B3019ADA
:10044000012A4FEA075215DC001B61EB02014FF055
:10045000004202EA0752CDE90042001C41F580113A
:1004600032462B4600F073FA03B0BDE8F08F4046E9
:100470002146F9E7001B61EB0201001C41F58013E6
:1004800000185B412018A2F5001747EB030140EA72
:10049000D570B6196D4111E06D084FEA360645EA90
:1004A000C0754FEA0752001B61EB0201001C41F5C9
:1004B000801149084FEA30000019514132462B465D
:1004C00003B0BDE8F04F00F033BA009801224000BD
:1004D0000023D0EB020263EBE073009821464FEA61
:1004E000E074B8EB000061EB0401E9E783F000433E
:1004F0005BE781F0004158E72DE9FE4F81EA0304F4
:1005000004F0004421F0004100944FF0000B23F070
:10051000004350EA01045ED052EA03045BD0C3F307
:100520000A54C1F30A552C44A4F2F3340194A0FBFD
:100530000254C1F3130141F48011C3F3130343F4D4
:10054000801301FB024400FB034E840A970A44EA2D
:10055000815447EA8357A4FB076802958D0A05FB7F
:1005600007854FEA932C04FB0C542705029D4FEAA4
:10057000065847EA1637B5EB08056EEB070C870EF1
:10058000920E47EA811742EA8312A7FB0201B6EBFB
:100590000B0164EB00042B0D43EA0C335E1844EBB3
:1005A0001C50DA465146E7FB0201C5F313044FEA3B
:1005B0000B3343EA14534FEA0432019C43EA060327
:1005C000A4F10C040294009CCDE900B400F0BFF942
:1005D00003B0BDE8F08F00200146F9E72DE9F04DAA
:1005E00081EA030404F0004B21F0004514464FF06B
:1005F000000A23F0004150EA050220D054EA01022B
:100600001DD0C5F30A570246C5F31303C1F3130007
:10061000C1F30A5640F4801543F48013A7EB060893
:10062000101BD64608F2FD3873EB050002D308F123
:10063000010801E092185B41B8F1000F03DA0020D5
:100640000146BDE8F08D00204FF480110646844637
:100650000EE0171B73EB050705D3121B63EB0503B5
:1006600006434CEA010C49084FEA300092185B41FE
:1006700050EA0107EDD152EA030012D082EA0400E9
:1006800083EA0501084305D0101BAB4106D20122C5
:10069000002306E000224FF0004302E06FF0010269
:1006A00053101AEB06004CEB085110EB0A0041EB1B
:1006B0000B01BDE8F04D00F03BB90EB5C10F80EA6B
:1006C000E0700844CA07002140F233438DE80E0071
:1006D0000A460B4600F03BF903B000BD0EB540F2F0
:1006E000334102910021CDE900110A460B4600F08A
:1006F0002EF903B000BD70B5C1F30A5201F00045F8
:100700000024C1F3130140F2FF3341F480119A42F7
:1007100001DA002070BD40F233439A42A2F2334224
:1007200003DC524200F073F800E090402C43F1D01B
:10073000404270BDC1F30A5210B5C1F3130140F23B
:10074000FF3341F480119A4201DA002010BD40F2DB
:1007500033439A42A2F2334203DC524200F057F88C
:1007600010BD904010BD00F0004230F000400AD0B3
:10077000C10D01F56071C0F3160042EA0151C208D3
:1007800040071143704700200146704701F00043C5
:1007900030B421F0004150EA010206D00A0DA2F562
:1007A0006072C1F31301002A02DC30BC00207047E4
:1007B000440F44EAC104C100E01830BC00EBC25051
:1007C00000F07FB830B50B460146002020220124FE
:1007D00009E021FA02F59D4205D303FA02F5491B0F
:1007E00004FA02F52844151EA2F10102F1DC30BD25
:1007F000202A04DB203A00FA02F1002070479140E1
:10080000C2F1200320FA03F3194390407047202AD5
:1008100004DB203A21FA02F00021704721FA02F3AA
:10082000D040C2F120029140084319467047202A67
:1008300006DBCB17203A41FA02F043EAE07306E008
:1008400041FA02F3D040C2F1200291400843194618
:1008500070472DE9F04791460F4680460446002632
:1008600014F8015B2DB100F0D3F80068405DC007BB
:10087000F6D12B2D02D02D2D18D0641E4A463946B4
:10088000204600F0C9F827B13968A14201D1C7F864
:10089000008071054FF002040BD54042002803DDB3
:1008A00004F058FB0460A007BDE8F08746F48066BA
:1008B000E4E70028F8DA04F04DFB04606FF0004034
:1008C000F2E70029A8BF7047401C490008BF20F08C
:1008D0000100704710B4B0FA80FC00FA0CF050EA46
:1008E000010404BF10BC704749B1CCF1200421FAC7
:1008F00004F411FA0CF118BF012121430843A3EBC2
:100900000C01CB1D4FEA00614FEA102042BF0020CE
:1009100010BC704700EBC35010440029A4BF10BCAA
:100920007047401C490008BF20F0010010BC704710
:1009300010B5141E73F1000408DA401C41F10001E7
:1009400092185B411A4301D120F0010010BD2DE93E
:10095000F04D92469B4611B1B1FA81F202E0B0FA35
:1009600080F220329046FFF743FF04460F4640EAEC
:100970000A0041EA0B0153465A46084313D0114678
:1009800053EA010019D0C8F140025046FFF73FFF7B
:1009900005460E46504659464246FFF729FF084392
:1009A00005D0012004E020463946BDE8F08D002046
:1009B000054346EAE0762C4337430A986305E40A88
:1009C000A0EB08000022FD0A44EA47540A3002D591
:1009D00000200146E9E7010510196941DDE90845F4
:1009E00000196941BDE8F04DA2E70000064C074D33
:1009F00006E0E06840F0010394E8070098471034EF
:100A0000AC42F6D3FFF7D6FB409C0008609C000880
:100A100000487047EC9B00082DE9F05F82460078A3
:100A2000002715468B460AF10104B946302801D04B
:100A30009DB113E014F8010B0127782803D0582842
:100A400001D045B10AE00DB1102D07D100271025C6
:100A500014F8010B02E0082500E00A250026B04644
:100A60000EE005FB080005FB06F1012701EB10462F
:100A70001FFA80F8B6F5803F00D3B94614F8010B91
:100A8000294600F018F80028EBDABBF1000F05D07A
:100A90000FB1641E00E05446CBF80040B9F1000FDE
:100AA00006D004F057FA02210160C81EBDE8F09F8D
:100AB00048EA0640FAE73A2800D2303820F020020F
:100AC000412A01D3A2F13700884201D34FF0FF3011
:100AD000704730B58C1810F8012B12F00F0301D1BC
:100AE00010F8013B120906D110F8012B03E010F8B1
:100AF000015B01F8015B5B1EF9D101E001F8013BEC
:100B0000521EFBD1A142E6D3002030BD014800F0C7
:100B1000AABB000094010020464910B54A6822F49F
:100B200040324A604A6843681A434A6001684A682A
:100B300022F480724A6001684A68036942EA03222B
:100B40004A6001684A6822F040724A6001684A6857
:100B500083681A434A6001688A6822F400628A60E6
:100B600001688A68C3681A438A60816A6FF070629C
:100B7000D14201688A6822F070628A6001688A68DE
:100B80000CD0836A1A438A6001688A6822F0405256
:100B90008A6001688A68C36A1A4301E022F0405201
:100BA0008A6001688A6822F002028A6001688A68A5
:100BB000037E42EA43028A6090F82010002901680F
:100BC0004A680FD042F400624A6001684A6822F421
:100BD00060424A6001684A68174C436A04EB433339
:100BE0001A4301E022F400624A600168CA6A22F4F2
:100BF0007002CA620168CA6A838B104C04EB03530B
:100C00001A43CA6201688A6822F400728A60016825
:100C10008A6890F8303042EA43228A6001688A6824
:100C200022F480628A6001688A68406942EA802012
:100C3000886010BD0023014000E0FFFF0000F0FFCE
:100C400030B50C4605000BD0022C09D94FF6FF72C7
:100C5000A11E00F029FA291901F8020D000A4870B6
:100C600030BD30B50C4605000AD0022C08D9601EF4
:100C700081B2FF22284600F02DFA291901F8010C53
:100C800030BDFEE7014800F032BE00001402002033
:100C9000014800F02CBE000014020020014800F0C2
:100CA00026BE000014020020014800F020BE000013
:100CB0003C020020014800F01ABE00003C02002067
:100CC000014800F014BE00003C02002030B58BB09B
:100CD00028216846FFF745FB002401200194CDE957
:100CE00006400E2503940494CDE90805059400946C
:100CF000029469460D4800F0FFFC0C4801F054F8DE
:100D000002210A4800F078FC084869462830CDE9FD
:100D1000044500F0F1FC0548283001F045F803488F
:100D20000221283000F068FC0BB030BD1402002016
:100D3000014801F0C5B8000014040020014801F08A
:100D4000BFB800007404002001681823CAB2103A2A
:100D5000B2FBF3F2054B6FF30901032A9B5CC365F9
:100D600000D9091D8165084670470000748E00088F
:100D700010B5014600208B698A6A4FF0C07453B1E8
:100D8000B3F5005F15D072B1012A0CD0022A0AD047
:100D9000032A09D104E01AB1012A06D0022A03D19C
:100DA000C96AC90100D5012010BDC96AA142FAD0A3
:100DB00010BD002AF7D0012AF2D0022AF3D0032A6C
:100DC000F3D010BD30B50468256825F48025256072
:100DD000046863608368402B036803D099600068EF
:100DE000C26030BD9A600068C16030BD70470000CD
:100DF00010B5012303700268052422F0E06202F1BD
:100E0000807222F0605202F140520260426822F089
:100E10000F02521C22F0F002703264F310220C4CCC
:100E20002240426082686FF30902D21C63F394226D
:100E3000C2F3140202F500128260C2688B1563F3DC
:100E40000902CB1263F3942261F35F52C26010BDBA
:100E5000FFFF01FC72B6FEE7364D0124002002F0D0
:100E6000DDFB35A20021342002F05AFC34A201211E
:100E70000A2002F055FC36A202210A2002F050FCA2
:100E800037A203210A2002F04BFC39A204210A20D8
:100E900002F046FC3AA205210A2002F041FC3CA2E5
:100EA00006210A2002F03CFCE1B22A22032002F0D3
:100EB0001DFC00BF05F0FAFC0028FBD0142005F053
:100EC0005FFA05F0F3FC687005F0F0FC0028FBD138
:100ED000142005F055FA6878012804D0022806D0BD
:100EE000052809D021E0641E1FD106241DE0641CE2
:100EF000072C1AD1012418E0072C16D2DFE804F0E1
:100F00001504070A0D10130003F0B8FA0DE003F002
:100F1000B9F80AE006F022FE07E005F0C9FE04E099
:100F200003F04EF901E000F047F8642007F010F8F4
:100F300094E70000780100204D454E550000000068
:100F4000526F626F745F6D65737361676500000057
:100F50004D6F746F725F6D6573736167650000003C
:100F600073686F6F745F6D65737361676500000010
:100F7000706F7765725F6D65737361676500000000
:100F80004D6F746F725F746573745F4E756C6C0037
:100F90004759524F5F636832335F6D6573736167A2
:100FA000650000000A2006F0D3FF02F053FB06F0B4
:100FB000DBFBFFF751FF000070B5002002F02EFBB5
:100FC000294C2A4D2A4E2BA201210A2002F0A8FB0F
:100FD00094ED060A02220121412002F003FC28A21E
:100FE00002210A2002F09CFB022294ED070A11461E
:100FF000412002F0F7FB25A203210A2002F090FB1A
:10100000B4F912200321412002F051FD20A2042155
:101010000A2002F085FBB4F914200421412002F0DB
:1010200046FD1CA205210A2002F07AFBB5F900203A
:101030000521412002F03BFD18A206210A2002F002
:101040006FFB32880621412002F031FD05F02EFCB5
:10105000032803D0642005F0DBFCB4E705F026FC90
:101060000028FBD170BD000040010020EC000020F2
:10107000F00000204759524F5F7365743A0000003A
:101080004759524F5F666462000000006368320097
:1010900063683300726F756E640000007261775F81
:1010A00076616C756500000010B558B1084C491E9A
:1010B0000BD310F8013B5340DBB234F8133083EA12
:1010C0001222F4E74FF6FF7010BD104610BD00006D
:1010D000B497000810B5064C04E000BF10F8013BBF
:1010E0005340E25C491E89B2F8D2104610BD0000A0
:1010F000B49600087047000078B50024009490F87A
:101100003C20012A19D0012280F83C200A680723DC
:101110000568092A13D9EE680A3A02EB42029340A5
:101120009E43EE600B788A680A3B03EB43039A40C8
:101130000368DD682A43DA6010E0022078BD2E697A
:1011400002EB420293409E432E610B788A6803EBC8
:1011500043039A4003681D692A431A614A681F23A2
:10116000072A13D205686E6B521E02EB820293406F
:101170009E436E630A8893B20A79521E02EB820282
:1011800093400268556B2B43536327E005680D2A93
:1011900012D22E6BD21F02EB820293409E432E632B
:1011A0000B790A88DB1F92B203EB83039A40036832
:1011B0001D6B2A431A6311E0EE6A0D3A02EB8202BC
:1011C00093409E43EE620B790A880D3B92B203EB8B
:1011D00083039A400368DD6A2A43DA621B4B056881
:1011E000194A9D420AD10D68122D07D1556825F480
:1011F00000055560556845F48005556005689D42B9
:101200001DD1134D0B68AB4201D0112B17D1536880
:1012100023F480035360536843F400035360096868
:10122000A9420CD10B490C4A0968B1FBF2F101EB60
:101230008101490000E0491E00910029FBD180F89E
:101240003C40002078BD0000002301400020014008
:10125000120000104C00002040420F007047704701
:101260000068C06C704770B5044600680168426849
:10127000C1F34001C2F3401251B34AB3216CC90615
:1012800003D4216C41F400712164816811F0405F46
:1012900017D1217EA9B9C16A11F4700F02D08168FB
:1012A00049050ED4416821F020014160206C20F4F2
:1012B00080702064206CC00403D4206C40F00100D6
:1012C00020642046FFF7CAFF21686FF01200086013
:1012D000206801684268C1F38001C2F3C01289B37B
:1012E00082B3216CC90603D4216C41F400512164FE
:1012F000816811F4401F1ED1816B11F4401F02D090
:101300008168490517D44168490514D4816811F0F2
:10131000405F10D1217E71B9416821F080014160A8
:10132000206C20F480502064206CC00503D4206C15
:1013300040F0010020642046FFF7DCFE21686FF0DA
:101340000C00086020680168426811F0010FC2F3C8
:1013500080120ED06AB10068C0070AD0206C40F439
:1013600080302064204600F046F821686FF00100CC
:101370000860206801684268C1F34011C2F38062CE
:1013800000290DD0002A0BD0616C41F0020161648C
:101390006FF0200505602046FFF761FF20680560BB
:1013A00070BD70B504004FF0000503D0206C00261E
:1013B00010B107E0012070BD204600F01DF8666402
:1013C00084F83C60206CC00610D4206C20F4885057
:1013D00040F0020020642046FFF79EFB6664206C0C
:1013E00020F0020040F00100206400E0012584F8B4
:1013F0003C60284670BD704710B586B00446142185
:101400006846FEF7AEFF15492068884224D114488B
:101410000021026842F480720260006800F480706B
:1014200005900F481438026842F00102026000681B
:1014300000F001000590402000900320CDE901015B
:101440006946084800F0AEFE00220521122001F096
:1014500025F8122001F014F806B010BD002001405C
:1014600044380240000002402DE9F0410446006883
:101470000D4681684FF0000749050BD58068C0050F
:1014800008D5206C40F02000206484F83C700120D6
:10149000BDE8F08100F076FF06460FE0681C0DD035
:1014A00025B100F06FFF801BA84207D9206C40F0E7
:1014B0000400206484F83C700320E9E72068006899
:1014C0008007EBD521686FF012000860206C40F4B3
:1014D000007020642068816811F0405F13D1217E84
:1014E00089B9C16A11F4700F02D0806840050AD42E
:1014F000206C20F480702064206CC00403D4206C25
:1015000040F0010020640020C2E7000018B500216F
:10151000009190F83C20012A07D0012280F83C205D
:1015200002689368DB0702D011E0022018BD9368BF
:1015300043F0010393602A4A2A4B1268B2FBF3F28C
:1015400002EB420200E0521E0092002AFBD1026828
:101550009368DB0741D0036C40F20164A34343F47A
:101560008073036453685B0505D5036C23F4005353
:1015700043F480530364036CDB0404D5436C23F011
:101580000603436400E0416480F83C1016496FF0A4
:101590002203136049680068CA06144906D08842CD
:1015A0001BD1816811F0405F13D016E08842F8D05B
:1015B0000F4A904203D1D1F80423D206F1D00D4A4C
:1015C00090420AD1D1F8041301F01F011029E8D389
:1015D00003E0816841F080418160002018BD000077
:1015E0004C00002040420F00002301400020014039
:1015F000002101400022014090F82020012A07D05C
:10160000022A05D0416A41F48021416201207047DD
:10161000006842690A43426100207047F0B590F8C3
:1016200020500468A468012D05D0022D03D0416A22
:1016300041F480215DE014F0406F01D1E50055D503
:10164000C4F30164022C03D9416A41F4000150E063
:101650000125A5401D608D684FF4C0739DB1CE6813
:1016600035434E6845EAC605066803EB0417F55195
:101670004FF4C275076805EB04150E697E51097DAC
:10168000012905D009E00E88CD6845EA4655EBE70B
:1016900001684E5946F480764E511179D5795679C4
:1016A00041EA056195792D0445EA062529434FF461
:1016B000C676056806EB0416A9511178D57841EA7B
:1016C0000561957852782D0445EA022211434FF4C2
:1016D000C475026805EB04155151006803EB041151
:1016E000425842F0010242500020F0BD416A41F4EC
:1016F000001141620120F0BD10B590F82020012AB0
:1017000007D0022A05D0416A41F4802141620120BC
:1017100010BD3B48D0F8002242F00102C0F8002280
:10172000D0F8002222F47C52C0F80022D0F8002227
:101730004B6A42EA0322C0F800220A7D02F01F032E
:1017400001229A40D0F81C329343C0F81C32CB6976
:10175000B3B9D0F80C329343C0F80C328C894B6883
:1017600064F31F434C6900EBC404C4F840320C8995
:101770000B6864F31F434C6900EBC404C4F84432A3
:10178000CB69012B16D1D0F80C321343C0F80C32C0
:101790000C884B6864F31F434C6900EBC404C4F825
:1017A00040320C89CB6864F31F434C6900EBC404DE
:1017B000C4F844328B69002BD0F804320ED01343A6
:1017C000C0F804320B69002BD0F8143208D0134350
:1017D000C0F81432096A012904D008E09343EFE706
:1017E0009343F5E7D0F81C121143C0F81C12D0F84F
:1017F000001221F00101C0F80012002010BD00000D
:1018000000640040704730B590F82040012C05D0AE
:10181000022C03D0416A41F480215DE00468002974
:1018200055D02469A40754D04FF4D874056804EB4C
:1018300001142D5915F00405956005682D594ED0F9
:10184000ED08556005682C5904F00204D4604FF48B
:10185000DA74056804EB01142D5905F00F051561C4
:1018600005682D59C5F30725956105682C59240C89
:1018700054614FF4DC72046802EB0112A4581C702E
:101880000468A458240A5C700468A458240C9C7052
:101890000468A258120EDA704FF4DE72046802EB8C
:1018A0000112A4581C710468A458240A5C710468CD
:1018B000A458240C9C710468A258120EDA710068B6
:1018C00081B1016941F020010161002030BDE4686F
:1018D000A8E7416A41F400114162012030BD6D0D5D
:1018E0001560AFE7C16841F02001C160EDE72DE967
:1018F000F05F0546006800244669D0F804908768C8
:10190000D0F80CB0D0F810A0D0F81880F10748D06B
:10191000F90714D001218160B80703D5284600F0EB
:1019200070FA0CE0780702D54FF4006407E038073E
:1019300002D54FF4805402E0284600F061FAF80521
:1019400016D529684FF480708860B80503D52846FD
:1019500000F059FA0CE0780502D544F4005407E091
:10196000380502D544F4804402E0284600F04AFAE3
:10197000F80316D529684FF480308860B80303D582
:10198000284600F042FA0CE0780302D544F4004403
:1019900007E0380302D544F4803402E0284600F022
:1019A00033FA300707D55FEACB6004D529681020E9
:1019B00044F40074C86070074FF0080707D55FEA69
:1019C0000B7004D52868C760284600F0B9F9B00745
:1019D00006D52868C068800702D0284600F0B2F912
:1019E000700607D55FEACA6004D52968102044F460
:1019F00080640861B00607D55FEA0A7004D52868DC
:101A00000761284600F0CCF9F00606D52868006981
:101A1000800702D0284600F0C4F9B00308D55FEA79
:101A2000C96005D5296810204860284600F0BAF939
:101A3000F00307D55FEA097004D528684760284697
:101A400000F0E4F9300446D55FEA497040D5F0056E
:101A500004D55FEAC87001D044F00104B00504D594
:101A60005FEA887001D544F00204700504D55FEA8E
:101A7000487001D544F00404300529D518F0700FE2
:101A800026D008F07000402815D006DC102809D0B8
:101A900020280AD0302816D10AE050280ED060281D
:101AA00011D10EE044F008040DE044F010040AE007
:101AB00044F0200407E044F0400404E044F08004D3
:101AC00001E044F480742868816921F0700181612B
:101AD000296804204860002C05D0686A20436862A9
:101AE0002846FFF78FFEBDE8F09F70B5040003D0D5
:101AF00094F8200010B104E0012070BD204600F0F1
:101B000081F82068016821F00201016000F03AFCD0
:101B10000546052604E000F035FC401B0A2811D8D4
:101B2000206840688007F6D42068016841F0010110
:101B3000016000F027FC05460BE000F023FC401B91
:101B40000A2806D9606A40F40030606284F8206098
:101B5000D2E720684068C007EFD0207E01282068C7
:101B600001683DD021F080010160607E012820687D
:101B7000016838D021F040010160A07E0128206872
:101B8000016833D021F020010160E07E0128206847
:101B900001682ED041F010010160207F01282068EB
:101BA000016829D021F008010160607F01282068C8
:101BB000016824D021F004010160D4E90201084346
:101BC000D4E90412114308436168491E084321689F
:101BD000C86100206062012084F82000002070BDF0
:101BE00041F08001C0E741F04001C5E741F020012C
:101BF000CAE721F01001CFE741F00801D4E741F036
:101C00000401D9E7F0B587B0044614216846FEF711
:101C1000A8FB464B4648DFF810E11968D4F800C02D
:101C2000434A03250226092710300024491CF445A5
:101C300032D11960012907D1016841F000710160BA
:101C4000006800F000700590106840F00800106017
:101C50001068CDE9005600F00800CDE9047069462F
:101C60003448CDE9024500F09DFA002205211320F9
:101C700000F014FC132000F003FC002205211420C6
:101C800000F00CFC142000F0FBFB002205211520C5
:101C900000F004FC152043E0DFF89CE0F44541D15E
:101CA000D0F800C04CF0806CC0F800C0D0F800C084
:101CB00001290CF0806CCDF814C0196007D10168BF
:101CC00041F000710160006800F00070059010683C
:101CD00040F002001060106802AB00F002000590B6
:101CE0004FF44050CDE9000683E8B0006946134840
:101CF00000F058FA002205213F2000F0CFFB3F20E2
:101D000000F0BEFB00220521402000F0C7FB402070
:101D100000F0B6FB00220521412000F0BFFB41206E
:101D200000F0AEFB07B0F0BD0064004014000020DE
:101D300030380240000C02400068004000040240BD
:101D40007047000010B5044600681149884209D167
:101D5000104B114A00212046FFF755FD0D490E4852
:101D600003F00EFF0D49206888420FD1094B0A4A43
:101D700008331C3200212046FFF745FD054906487F
:101D80000831BDE810401C3003F01CBF10BD00003E
:101D90000064004018000020DC01002000680040C2
:101DA000704770477047000070B5044690F82000F7
:101DB000012804D0606A40F40020606218E002202C
:101DC00084F820002068016821F00101016000F022
:101DD000D9FA05460EE000BF00F0D4FA401B0A28ED
:101DE00008D9606A40F400306062052084F8200061
:101DF000012070BD20684068C007EDD1606270BDF1
:101E000070477047704770477047704770472DE9BB
:101E1000F0410446876D00F0B5FA064694F83500A7
:101E20000025022806D08020606584F83450012007
:101E3000BDE8F0812068016821F01601016020688A
:101E4000416921F080014161206C08B9A06C20B18A
:101E50002068016821F0080101602068016821F014
:101E6000010101600BE000F08DFA801B052806D906
:101E70002020606504F8345F03206070D8E7206894
:101E80000068C007EFD194F85C103F208840B8602C
:101E900004F8345F012060700020C9E790F8351025
:101EA000022903D08021416501207047052180F877
:101EB00035100068016821F00101016000207047C1
:101EC0002DE9F84304464FF00009CDF8009063482F
:101ED0004FF41651A56D0068B0FBF1F72E6894F829
:101EE0005C10082000FA01F131420FD021680A6825
:101EF00052070BD50A6822F004020A6094F85C10BD
:101F00008840A860606D40F00100606594F85C1046
:101F10004FF0010808FA01F0304208D02168496901
:101F2000090604D5A860606D40F00200606594F871
:101F30005C1004208840304208D021680968890775
:101F400004D5A860606D40F00400606594F85C10F2
:101F500010208840304218D021680968090714D53C
:101F6000A86020680168490304D50068000308D50B
:101F7000A16C07E00168C90503D4016821F00801DC
:101F80000160216C09B12046884794F85C1020203C
:101F90008840304231D021680968C9062DD5A86033
:101FA00094F8350005282068016806D0490347D514
:101FB000006800031DD4616C1CE021F01601016073
:101FC0002068416921F080014161206C08B9A06C52
:101FD00020B12068016821F00801016094F85C10CC
:101FE0003F208840A86084F8349084F83580216DC3
:101FF0001FE0E16B09B120468847606D00282BD0B7
:10200000606DC00714D0052084F835002068016891
:1020100021F0010101600098401C0090B84203D8F3
:1020200020680068C007F6D184F8349084F83580C1
:10203000E16C002910D001B02046BDE8F04308470C
:102040000168C905D5D4016821F01001016084F848
:10205000349084F83580CCE7BDE8F8834C0000204C
:102060002DE9F041044600F08DF906465CB10025EB
:1020700084F83450022084F835002068016821F08B
:10208000010101600DE00120BDE8F08100F07AF966
:10209000801B052805D920206065032084F83500C1
:1020A000F2E720680068C007F0D122681168204874
:1020B0000140D4E901031843D4E9033633431843FC
:1020C00063691843A3691843E3691843236A1843F3
:1020D0000843616A042903D1D4E90B131943084367
:1020E000106020684069666A20F0070130460E43A0
:1020F000012704280CD1A06A0643E06A40B12046BB
:10210000FEF736FE20B14020606584F83570BAE7EE
:10211000206846612046FEF717FE94F85C203F21B8
:1021200091408160656584F835700020ACE700005F
:102130003F8010F02DE9F0410446866D90F83400A0
:10214000002501280DD0012084F8340094F8357062
:102150000020012F07D084F8340002252846BDE86E
:10216000F0810220FBE7022784F835706065204685
:10217000FEF728FE94F85C103F208840B06020688D
:10218000016841F016010160206C20B120680168EF
:1021900041F0080101602068016841F0010101601F
:1021A000DCE700002DE9F84F00224FF0010803257D
:1021B0004FF00F0E0B6808FA02F42340A3426ED1D1
:1021C0004E68012E05D0022E03D0112E01D0122E02
:1021D00012D186684FEA420C05FA0CF7BE43CF686D
:1021E00007FA0CF7374387604668A6430C79C4F3B7
:1021F0000014944034434460C668570005FA07FC55
:102200008C6826EA0C06BC403443C4604C68022C3F
:1022100001D0122C13D1D40800EB8404A346D4F8C7
:10222000209054074FEAD46A0EFA0AF629EA060902
:102230000E6906FA0AF646EA0906CBF82060046839
:102240000E7924EA0C0406F00306BE40264306601D
:102250004C68E4006FD53B4C266846F48046266007
:10226000246822F0030604F480440094364C34447D
:10227000A446D4F808489607360F0EFA06F7BC4372
:10228000324FB84201D100272EE0314FB84201D180
:10229000012729E02F4FB84202D1022724E04AE06B
:1022A0002D4FB84201D103271EE02C4FB84201D177
:1022B000042719E02A4FB84201D1052714E0294F1D
:1022C000B84201D106270FE0274FB84201D10727B6
:1022D0000AE0264FB84201D1082705E0244FB84252
:1022E00001D1092700E00A27B7402743CCF8087836
:1022F000204E34684F689C43FF0300D51C43346074
:102300001C4E361D34684F689C43BF0300D51C43E8
:102310003460184E083634684F689C43FF0200D57D
:102320001C433460134E0C3634684F689C43BF0224
:1023300000D51C433460521C102AFFF43BAFBDE8AB
:10234000F88F000044380240003001400000024095
:102350000004024000080240000C0240001002404D
:102360000014024000180240001C024000200240FD
:1023700000240240003C01400AB181617047090419
:10238000FBE7000001488068704700004000002023
:102390000248816802781144816070474000002043
:1023A0000B4810B5016841F400710160016841F407
:1023B00080610160016841F480710160032000F0D8
:1023C0008DF8002000F006F800F03EF8002010BD67
:1023D000003C024010B5014688B00022192000F0F0
:1023E0005DF8192000F04CF813480024016841F012
:1023F00001010160006805A900F00100069068462F
:1024000000F050F900F07EF90C494000B0FBF1F10A
:102410000C480B4A491E026040F2E732C0E903242F
:10242000C0E9011400F0B4FB10B1012008B010BDE8
:10243000044800F00FFCF9E74438024040420F0026
:1024400000000140540500200C4882B0016841F4AE
:1024500080410160006800F4804000900748001F40
:10246000016841F0805101600068002200F0805056
:1024700000900F21901E02B000F010B844380240C6
:10248000002809DB00F01F02012191404009800073
:1024900000F1E020C0F8001170470000F0B40E4BCE
:1024A0001B680C46C3F30223C3F10705042D00D9B2
:1024B0000425191D072901D2002300E0DB1E012697
:1024C00006FA05F1491E214099409E40761E1640AD
:1024D0003143F0BC02F02EBD0CED00E0064900F0E7
:1024E000070208684FF6FF03184040EA0220034A3B
:1024F00010430860704700000CED00E00000FA0592
:102500002DE9F8431748016841F0805101600068E7
:10251000154F00F08050012600903E64FFF732FF17
:1025200005464FF47A78114C05E000BFFFF72AFF0B
:10253000401B40450DD86068C003F7D57E64FFF7A7
:1025400021FF0546464607E0FFF71CFF401BB0424F
:1025500002D90320BDE8F88360688003F4D5002029
:10256000F8E700004038024000000E4200700040D2
:102570002DE9F0470E46050065D0DFF81481D8F844
:102580000000F7B200F00F00B04207D288F80070E8
:10259000D8F8000000F00F00B04254D128683D4C3C
:1025A000810712D5400703D5206840F4E050206031
:1025B0002878000703D5206840F460402060206838
:1025C000A96820F0F000084320602878C0072DD0CB
:1025D000304968680839012812D0022813D003282E
:1025E00011D00968890700292DDA216821F003013B
:1025F00001432160FFF7C6FE814641F2883A0EE0B2
:1026000009688903EFE709688901ECE7FFF7BAFE7B
:10261000A0EB0901514502D90320BDE8F0872068ED
:10262000696800F00C00B0EB810FEFD1D8F8001012
:10263000404601F00F01B14207D90770006800F071
:102640000F00B04201D00120E7E72878400705D508
:102650002068E96820F4E0500843206028780007EB
:1026600006D52068296920F4604040EAC100206056
:1026700000F058F82168084AC1F30311515CC840C2
:102680000649086006480068FFF7A4FE0020C4E77A
:10269000003C0240083802407C8E00084C000020BC
:1026A000440000200F2202600C4A136803F0030369
:1026B0004360136803F0F0038360136803F4E0538E
:1026C000C36012684FF4E05303EAD2020261044887
:1026D000006800F00F0008607047000008380240F2
:1026E000003C02400448054900680968044AC1F3F7
:1026F0008221515CC84070474C00002008380240DD
:102700008C8E00080448054900680968044AC1F332
:102710004231515CC84070474C00002008380240EC
:102720008C8E0008154810B5006810F00C02144893
:1027300013D01449042A0FD0082A0ED10F4C241F9D
:102740002268236802F03F025B0207D52068C0F3CD
:102750008810A0FB010106E0084610BD2168C1F306
:102760008811A1FB00010023FDF79EFD2168C1F344
:102770000141491C4900B0FBF1F010BD083802408E
:102780000024F400001BB7002DE9F84F04006ED0C0
:102790002078DFF83C93C007A9F104054AD009F17D
:1027A00004000168C1F38101012908D00068C0F369
:1027B000810002280AD1D9F80000400206D5286815
:1027C000800337D560680028E1D033E06068B0F559
:1027D000803F10D0B0F5A02F286810D020F48030B2
:1027E0002860286820F4802028606068A8B1FFF77E
:1027F000C9FD06460DE0286840F48030F4E740F457
:1028000080202860F7E700BFFFF7BCFD801B64282D
:1028100073D828688003F7D50CE0FFF7B3FD0646B0
:1028200005E000BFFFF7AEFD801B6428F0D82868E4
:102830008003F7D42078DFF89C8280074FF0000AED
:102840003ED5A348001D016811F00C0F08D00068A8
:10285000C0F3810002280BD1D9F80000400207D450
:102860002868800716D5E068012800D112E02BE126
:10287000E068B8B10120C8F80000FFF783FD064604
:1028800005E000BFFFF77EFD801B0228C0D8286846
:102890008007F7D52868216920F0F80040EAC100D8
:1028A00028600DE0C8F800A0FFF76CFD064604E0C4
:1028B000FFF768FD801B02281FD828688007F7D41F
:1028C0002078000722D5824E83486169703671B145
:1028D00001210160FFF756FD074604E0FFF752FDB6
:1028E000C01B022809D830688007F7D50EE0C0F871
:1028F00000A0FFF747FD074605E082E0FFF742FD35
:10290000C01B02287DD830688007F7D420784007A4
:1029100068D5DFF8BCB100270BF13C0BDBF80000F9
:10292000C0000BD4DBF8001041F08051CBF8001050
:10293000DBF80000012700F080500090674E3068FF
:10294000C00510D4306840F480703060FFF71AFD85
:10295000009005E0FFF716FD0099401A022850D8B4
:102960003068C005F6D55A4EA0686C3601280FD0E5
:102970000528306810D020F001003060306820F069
:1029800004003060A068B8B1FFF7FCFC00900FE0D5
:10299000306840F00100F4E740F004003060F7E7F1
:1029A000FFF7F0FC0099411A41F28830814266D865
:1029B00030688007F4D50EE0FFF7E4FC009007E0F4
:1029C000FFF7E0FC0099411A41F28830814256D865
:1029D00030688007F4D42FB1DBF8001021F080516B
:1029E000CBF80010A069C8B33949091D0968C1F3C3
:1029F000810102294AD00228504607D0C8F8600059
:102A000000E03CE0FFF7BEFC04463BE04746C8F868
:102A10006000FFF7B7FC064605E000BFFFF7B2FC19
:102A2000801B02282BD828688001F7D4D4E907013D
:102A30000843A16A2A4A490802EB0141626A41EA55
:102A40008211084394F82C1040EA0161C9F8001083
:102A500001203866FFF796FC044606E036E000BF2A
:102A6000FFF790FC001B022809D828688001F7D5E1
:102A70002CE000BFFFF786FC001B022802D90320D0
:102A8000BDE8F88F28688001F4D41FE00128F7D052
:102A9000D9F80000E26900F48001914214D1226A61
:102AA00000F03F0191420FD147F6C071626A0140C8
:102AB000914209D1A26A00F44031914204D1E16A05
:102AC00000F07060884201D00120D9E70020D7E7EC
:102AD0000438024000004742800E47420070004028
:102AE0000000FFFF4FF0E0210428086903D020F028
:102AF00004000861704740F00400FAE7704770472F
:102B000070B590F83C20012A32D0012480F83C4076
:102B1000022280F83D2003685A689D6822F0700602
:102B20000A6832435A60134B02689A4214D0B2F1D9
:102B3000804F11D0104B9A420ED0104B9A420BD0BE
:102B40000F4B9A4208D00F4B9A4205D00E4B9A4237
:102B500002D00E4B9A4204D1496825F080031943F4
:102B6000916080F83D40002180F83C10084670BD1F
:102B7000022070BD00000140000400400008004039
:102B8000000C0040000401400040014000180040DB
:102B900010B5040003D094F83D0010B107E0012007
:102BA00010BD002084F83C00204600F00DF8022003
:102BB00084F83D00211D206801F00CFE012084F8FE
:102BC0003D00002010BD000008B51D4A01681D48E9
:102BD000914211D1016841F00201016000680022B8
:102BE00000F00200009005211D20FFF757FCBDE812
:102BF00008401D20FFF744BC134A914208D10168E8
:102C000041F004010160006800F00400009008BD7C
:102C10000E4A9142FBD1016841F020010160006839
:102C2000002200F02000009005213720FFF736FC3D
:102C30003720FFF725FCBDE80840054800F00AB83A
:102C400000040040403802400008004000140040EA
:102C5000140300200168CA6842F00102CA600068DB
:102C6000816801F00701062903D0016841F00101E4
:102C700001600020704770B5044690F83C000128C0
:102C800017D0012584F83C50022084F83D002068CC
:102C9000826822F0770222F47F428260086850281E
:102CA00030D00DDC20284DD005DC98B310283BD166
:102CB00048E0022070BD302844D0402834D139E0AB
:102CC000602828D0702806D0B0F5805F2CD0B0F5F1
:102CD000005F29D10AE0CB68D1E90121206801F029
:102CE000EAFD2068816841F0770109E0CB68D1E90D
:102CF0000121206801F0DFFD2068816841F48041F6
:102D0000816011E0CA684968206801F0A9FE50217D
:102D1000206807E016E0CA684968206801F0B1FE43
:102D20006021206801F0D1FD84F83D50002084F836
:102D30003C0070BDCA684968206801F091FE4021DE
:102D40002068EFE7226801461046EBE7704770B550
:102D50000446006801694FF00005C943890715D48E
:102D6000C168C943890711D4E91E01610120207798
:102D7000206880698007204602D0FFF7E7FF04E063
:102D800000F0CCF8204600F04EF925772068016964
:102D9000C943490717D4C168C943490713D46FF021
:102DA00004010161022020772068806910F4407FCF
:102DB000204602D0FFF7CAFF04E000F0AFF820463B
:102DC00000F031F9257720680169C943090716D455
:102DD000C168C943090712D46FF0080101610420DA
:102DE00020772068C0698007204602D0FFF7AEFF39
:102DF00004E000F093F8204600F015F925772068EC
:102E00000169C943C90617D4C168C943C90613D4A7
:102E10006FF010010161082020772068C06910F46C
:102E2000407F204602D0FFF791FF04E000F076F8E3
:102E3000204600F0F8F8257720680169C943C907E2
:102E400008D1C168C943C90704D1891E0161204660
:102E500000F00CF920680169C943090609D4C1686A
:102E6000C943090605D46FF0800101612046FFF7D0
:102E700045FE20680169C943490609D4C168C943B0
:102E8000490605D46FF040010161204600F014F9B5
:102E900020680169C94389060BD4C168C943890602
:102EA00007D46FF0200101612046BDE87040FFF7B4
:102EB00026BE70BD10B586B0044614216846FDF7E5
:102EC00050FA1249206888421DD111480021026839
:102ED00042F008020260006800F0080005904FF41C
:102EE000405000900220CDE9010103900490694612
:102EF0000848FFF757F90021074800F095F804212A
:102F0000054800F091F806B010BD00000008004030
:102F100030380240000C0240D4020020704770B5E7
:102F2000044690F83C000D4601280DD0012684F897
:102F30003C60022084F83D0042B1042A18D0082ADF
:102F40002AD00C2A4DD139E0022070BD206801F052
:102F5000C5FC2068816941F00801816120688169B0
:102F600021F004018161206881692A69114311E01F
:102F7000206801F0E3FC2068816941F4006181610F
:102F80002068816921F480618161206881692A69F2
:102F900041EA0221816124E0206801F005FD2068FA
:102FA000C16941F00801C1612068C16921F00401D3
:102FB000C1612068C1692A69114311E0206801F0EC
:102FC00027FD2068C16941F40061C1612068C169C1
:102FD00021F48061C1612068C1692A6941EA022146
:102FE000C16184F83D60002084F83C0070BD10B5DC
:102FF000040003D094F83D0010B107E0012010BD9B
:10300000002084F83C00204600F00CF8022084F8F0
:103010003D00211D206801F0DDFB012084F83D000A
:10302000002010BD7047704710B5044600680122AB
:1030300001F034FC0B492068884202D00A498842DA
:1030400003D1416C41F4004141642068816801F082
:103050000701062903D0016841F001010160002049
:1030600010BD0000000001400004014000680C4950
:10307000884201D1FFF78CB90A49884208D10A4831
:1030800001684268491C42F10002016042607047D9
:10309000064909688842FAD10549064802F0F8BF96
:1030A000000001400004004038000020140300200C
:1030B000BC51002038510020704710B5044600680C
:1030C000416994F83920C1F3C011212A0BD151B1C3
:1030D000416921F080014161206B08B1FEF797FE44
:1030E000204601F03EFD2068416994F83A20C1F382
:1030F0008011222A0BD151B1416921F04001416177
:10310000606B08B1FEF783FE204601F01CFD002035
:1031100010BD704770B5026804461068D1685369E5
:1031200010F00F0F52D003F0010501F490762E43FA
:103130005FD0C20705D0CA0503D5E26B42F0010299
:10314000E263420705D5DA0703D0E26B42F00202E0
:10315000E263820705D5DA0703D0E26B42F004028E
:10316000E263020707D501F020022A4303D0E26B95
:1031700042F00802E263E26B002A33D0800604D5F5
:10318000880602D5204601F0F5FC20684069E16B15
:10319000C0F38010090700D428B3204601F0D3FC07
:1031A0002068416949061AD5416921F04001416111
:1031B000606BA0B11B490165606BFEF76FFE0028D4
:1031C00010D0606B016DBDE870400847830610D5D4
:1031D0008B060ED52046BDE8704001F0CBBC2046E2
:1031E000FFF797FF70BD2046FFF793FF0020E063D5
:1031F00070BD030606D50B0604D52046BDE8704019
:1032000001F098BD4006F3D54806F1D5D1682046B7
:1032100021F04001D160202184F8391000F0B5F987
:1032200070BD0000A74A000870B5040004D094F8EF
:103230003900002510B106E0012070BD84F8385037
:10324000204600F023F8242084F839002068C16863
:1032500021F40051C160204601F0D8FC20680169CA
:1032600021F4904101612068416921F02A01416106
:103270002068C16841F40051C160E563202084F8F2
:10328000390084F83A00002070BD00002DE9F047B5
:1032900086B0064614216846FDF763F85D48DFF8FE
:1032A00070C137685B4914380222032307250024C4
:1032B00067451FD10E6846F010060E60096801F0E0
:1032C00010010591016841F0020101600068694642
:1032D00000F002000590C0208DE81500CDE903350F
:1032E0004D48FEF75FFF002205212520FFF7D6F8A5
:1032F000252089E0DFF824C1674561D14549091FD0
:103300000F6847F480270F60096801F48021059158
:10331000016841F0080101600068694600F008009A
:1033200005904FF440708DE81500CDE903353C4819
:10333000FEF738FF3C4D3B484FF000672860C5E979
:1033400001744FF48069C5E903494FF4807A6C61D8
:10335000C5E9064A4FF44038C5E908842846FEF717
:103360007FFE08B1FDF776FD7563AE632E4D2D48E7
:1033700060353030E5E802074020A5E811022A4810
:1033800045F814496030C5E9064AC5E90884FEF7E6
:1033900067FE08B1FDF75EFD356300220521272099
:1033A000AE63FFF77BF82720FFF76AF81E488038E6
:1033B0000068C16841F01001C16006B0BDE8F08747
:1033C0001A4DAF42F9D10D6845F020050D6009682E
:1033D00001F020010591016841F0400101600068A1
:1033E000694600F0400005904FF484408DE81500D8
:1033F0000820CDE903300E48FEF7D4FE0022052157
:103400004720FFF74BF84720FFF73AF8D5E70000D1
:1034100000100140443802400004024000480040CF
:10342000000C0240286002401404002000140140F7
:1034300000180240F8B5044690F83A0020283CD124
:10344000C1B3BAB394F83800012836D0012084F80B
:103450003800A162A2850025E563222084F83A00A5
:10346000636B1748D863636B16481864636B164820
:10347000D864606B134605650846666B2168024692
:103480003046091DFEF756FE20680168416800912C
:1034900084F83850C16841F48071C1602068416986
:1034A00041F0010141612068416941F04001416101
:1034B0000020F8BDFFE70120FBE70220F9E700004C
:1034C000014B00083D4B0008B74A000870477047A1
:1034D0002DE9F843044690F839001F4616460D467C
:1034E000202850D1B5B1AEB194F8380001284AD0A7
:1034F000012084F838004FF00008C4F83C802120F7
:1035000084F83900FEF73EFFA6848146E68484F8FD
:10351000388026E00120BDE8F883E08C401EE0847E
:10352000A0684B46B0F5805F4FF000024FF080017D
:103530002046009703D001F02EFCE8B90DE001F021
:103540002AFCC8B928882168C0F3080048602069AF
:1035500008B16D1C05E0AD1C03E0216815F8010BF6
:103560004860E08C0028D8D14B46002240212046FC
:10357000009701F010FC08B10320CCE7202084F86C
:1035800039000020C7E70220C5E77047FEE70000CA
:1035900010B5184886B00024016841F001010160AF
:1035A000016801F001010591016841F0020101602B
:1035B0000068694600F0020005904FF4C160009079
:1035C000012001900290022003900B48FEF7EAFDD3
:1035D0008020009069460948FEF7E4FD0848C0F8DD
:1035E0008C420849C1F89C42C0F8A842C0F8A442E5
:1035F00006B010BD30380240000402400000024016
:10360000008040420000404241F6112303E0194689
:10361000491EFDD2401E0028F9D1704770B50646FC
:103620005FF0000404F1B000C0B200F0A7FA00207F
:1036300000F0A4FA102000F0A1FA0025304600F0B6
:10364000BFFA6D1CEDB2822DF8D3641CE4B2082CD5
:10365000E8D370BD70B5FFF79BFF234C0125C4F87C
:103660008C520020C4F8A802322004F52374FFF71E
:10367000CBFFE561002000F0B3FF802000F09CFF4D
:103680003F2000F0B9FF002000F0A0FF002000F074
:1036900075FF042000F076FF022000F05BFF0120A0
:1036A00000F0BEFF082000F083FF102000F075FF3F
:1036B000CF2000F059FFF12000F0A8FF402000F0DB
:1036C000B3FF002000F090FF002000F091FF0120E8
:1036D00000F086FF0020FFF7A1FFBDE87040002149
:1036E000084600F039BA00000080404230B5203A68
:1036F0000024D5B27A2802D9491C0020C9B200F0B2
:103700002BFA064905EB450001EB4005285D00F06A
:1037100057FA641CE4B2062CF8D330BD9C8E000826
:103720002DE9F04790468A4605460026DFF8489086
:103730001CE02038C7B27E2D04D90AF10100002513
:1037400000F0FF0A5146284600F006FA07EB470052
:10375000002409EB4007385D00F032FA641CE4B243
:10376000062CF8D3AD1D761CEDB2F6B218F80600A3
:103770000028DED1BDE8F0879C8E0008F0B50F462A
:103780000546140004D52D22FFF7B0FF644202E085
:103790002B22FFF7ABFF642194FBF1F294FBF1F0D5
:1037A00001FB12420A2192FBF1F694FBF1F201FBBC
:1037B00012443030C2B2A81DC0B23946FFF796FF9E
:1037C000303605F10C00F2B2C0B23946FFF78EFF79
:1037D00030341235E2B2E8B23946BDE8F040FFF7C6
:1037E00085BF00002DE9F74F04462DED020BFDEEDD
:1037F000C00A82B0062610EE905AF8EEE00A70EE8B
:10380000600A9FED701A10EE100A6F4960EE810A8F
:103810008842FDEEE00A10EE907A01DA2D2200E0F7
:103820002B2220460599FFF761FF002D00DA6D423B
:1038300042F21070B5FBF0F2B5FBF0F100FB125252
:103840004FF47A70B2FBF0F202F0FF0BB5FBF0F22E
:1038500000FB12524FF06400B2FBF0F202F0FF09DD
:10386000B5FBF0F200FB12524FF00A00B2FBF0F889
:10387000B5FBF0F200FB125504F11200009004F1C8
:103880001800019011F0FF0104F10C0A04F1060088
:1038900022D03031CAB2C0B20599FFF727FF0BF131
:1038A0003000C2B20AF0FF000599FFF71FFF09F1CF
:1038B0003000C2B200980599C0B2FFF717FF08F1B7
:1038C0003000C2B201980599C0B2FFF70FFF303542
:1038D000EAB204F11E001DE0BBF1000F1CD00BF199
:1038E0003001CAB20526C0B20599FFF7FFFE09F103
:1038F0003000C2B20AF0FF000599FFF7F7FE08F1A9
:103900003000C2B200980599C0B2FFF7EFFE303523
:103910000198EAB2C0B225E0B9F1000F13D009F165
:103920003001CAB20426C0B20599FFF7DFFE08F1E4
:103930003000C2B20AF0FF000599FFF7D7FE30351C
:10394000EAB20098E6E7B8F1000F19D008F13001AB
:10395000CAB20326C0B20599FFF7C8FE3035EAB2F5
:103960000AF0FF000599FFF7C1FE002F00DA7F4241
:103970000698052823D2DFE800F022070A13150075
:1039800002263035EAB2C5E74FF47A7000E06420D1
:1039900097FBF0F206EB460004EB4000C0B207E0F4
:1039A0000A20F5E706EB460004EB4000C0B23A46B9
:1039B000DDE9051307B0BDE8F04F00F007B807B028
:1039C000BDE8F08F00401C4695BFD6332DE9F04F7F
:1039D000154698468B4604462E22FFF787FE4FF485
:1039E0007A70B5FBF0F2B5FBF0F100FB12526420E7
:1039F000B2FBF0F202F0FF0AB5FBF0F200FB12524C
:103A00000A20B2FBF0F6B5FBF0F200FB1255A01D48
:103A1000C9B2B8F1010F28D0871DB8F1020F28D024
:103A200004F11209B8F1030F2DD0B8F1040F3CD105
:103A30003031CAB2C0B25946FFF758FE0AF1300021
:103A4000C2B2F8B25946FFF751FE3036F2B209F071
:103A5000FF005946FFF74AFE30351834EAB2E0B2AB
:103A60005946BDE8F04FFFF741BE3035EAB2C0B26B
:103A7000F6E73036F2B2C0B25946FFF737FE3035BE
:103A8000EAB2F8B2ECE70AF13001CAB2C0B2594664
:103A9000FFF72CFE3036F2B2F8B25946FFF726FE99
:103AA0003035EAB209F0FF00DAE7BDE8F08F2DE922
:103AB000F04315008946044604D52D22FFF716FE73
:103AC0006D4202E02B22FFF711FE42F2107195FBCE
:103AD000F1F095FBF1F201FB12514FF47A7291FB78
:103AE000F2F895FBF2F102FB1152642192FBF1F71F
:103AF00095FBF1F201FB12520A2192FBF1F695FBC4
:103B0000F1F201FB12553030C2B2A01DC0B24946DD
:103B1000FFF7ECFD08F13001CAB204F10C00C0B2AD
:103B20004946FFF7E3FD303704F11200FAB2C0B2A4
:103B30004946FFF7DBFD303604F11800F2B2C0B29F
:103B40004946FFF7D3FD30351E34EAB2E0B24946AC
:103B5000BDE8F043FFF7CABD10B50446B031C8B2A6
:103B600000F00CF8102040EA141000F007F804F000
:103B70000F00BDE8104000F001B8000070B50E491C
:103B800008230022C1F8A422C1F88C220B4C012585
:103B90000DE0060602D5C4F89C5201E0C4F89C2250
:103BA000C1F88C5200BFC1F88C224006000E5B1E8B
:103BB000DBB2EED270BD0000008040420000404207
:103BC00070B50E4A08210125C2F8A4520023C2F89C
:103BD0008C320B4C0DE0060602D5C4F89C5201E075
:103BE000C4F89C32C2F88C5200BFC2F88C32400636
:103BF000000E491EC9B2EED270BD000000804042E6
:103C00000000404209484188491C89B24180B1F511
:103C1000FA7F0AD900214180017881F00102027007
:103C20004FF400610248FEF7A7BB704778010020FF
:103C3000001002407FB500241548009401940294BE
:103C40001249039401604FF48031C0E9011404610A
:103C5000047680F820400F49C0E90A140125C561A7
:103C6000C46080F830404561FDF79BFB08B1FDF76B
:103C7000F1F80620CDE90005694602940448FDF7F5
:103C80003BFA002801D0FDF7E5F87FBD0020014098
:103C9000940100200100000F0E4810B50C4901608E
:103CA0000921416000214FF400328160C0E9031214
:103CB0004161017641768176C17601774177FDF7E2
:103CC00014FF002803D0BDE81040FDF7C3B810BDB5
:103CD00000640040140200200E4810B50C49016039
:103CE0000921416000214FF400328160C0E90312D4
:103CF0004161017641768176C17601774177FDF7A2
:103D0000F4FE002803D0BDE81040FDF7A3B810BDB5
:103D1000006800403C0200200D4808B5016841F4ED
:103D2000001101600068002200F4001000900521DD
:103D30000C20FEF7B3FB0C20FEF7A2FB00220521AE
:103D40000E20FEF7ABFBBDE808400E20FEF798BB47
:103D50003038024010B5074A0021074802F0F8FE4B
:103D6000064C044A002120602432054802F0F0FE8F
:103D7000606010BD2C8E0008B946000800000020CD
:103D80007D7C00082DE9F04786B014216846FCF7D9
:103D9000E8FA3748016841F040010160016801F02C
:103DA00040010591016841F001010160016801F0E5
:103DB00001010591016841F002010160016801F013
:103DC00002010591016841F008010160016801F0FC
:103DD00008010591016841F080010160016801F06E
:103DE00080010591016841F010010160016801F056
:103DF00010010591016841F0200101600068DFF8C1
:103E0000748000F020000590002204214046FEF757
:103E1000B3FADFF864904FF400660022314648465A
:103E2000FEF7AAFADFF854A0F70000223946504600
:103E3000FEF7A2FA01240420CDE900040325694617
:103E40004046CDE90245FEF7ADF9CDE9006469468B
:103E50004846CDE90245FEF7A5F9CDE9007469466B
:103E60005046CDE90245FEF79DF906B0BDE8F08762
:103E700030380240000402400010024000140240AA
:103E800010B586B00024164800940194029403945F
:103E900004941249059401605421C0E901143621AB
:103EA000C0E903148461FEF773FE08B1FCF7D2FF8A
:103EB0004FF48050009069460948FEF7DCFE08B1D7
:103EC000FCF7C8FF049404A905480594FEF718FE02
:103ED000002801D0FCF7BEFF06B010BD0004004072
:103EE0009402002010B58EB0002407940894099421
:103EF0000A940B941C2168460C94FCF732FA234870
:103F0000214901605321C0E9011444F61F61C0E951
:103F1000031480218161FEF73BFE08B1FCF79AFF94
:103F20004FF48050079007A91848FEF7A4FE08B187
:103F3000FCF790FF1548FFF75AF808B1FCF78AFF25
:103F40000B940BA911480C94FEF7DAFD08B1FCF7AD
:103F500081FF6020CDE900040294002269460B48ED
:103F60000494FEF7DCFF08B1FCF774FF04226946F5
:103F70000648FEF7D4FF08B1FCF76CFF0348FEF7D4
:103F800099FF0EB010BD000000080040D4020020D0
:103F90001CB500240F4800940D490194016059217B
:103FA000C0E9011440F2E731C16080218161FEF770
:103FB000EFFD08B1FCF74EFF0094694605480194F7
:103FC000FEF79EFD002801D0FCF744FF1CBD000059
:103FD00000140040140300200C4810B50A49016089
:103FE0004FF4E1314160002181600C22C160C0E9E1
:103FF00004128161C161FFF717F9002803D0BDE801
:104000001040FCF727BF10BD0010014054030020F2
:104010000C4810B50A4901604FF4E13141600021BC
:1040200081600C22C160C0E904128161C161FFF7A7
:10403000FBF8002803D0BDE81040FCF70BBF10BD13
:1040400000480040940300200C4810B50A49016064
:104050004FF4E1314160002181600C22C160C0E970
:1040600004128161C161FFF7DFF8002803D0BDE8C9
:104070001040FCF7EFBE10BD00140140D403002037
:10408000FEE700002DE9F0470020FFF7C7FA334CA8
:10409000334D344E344FDFF8D480DFF8D490DFF85E
:1040A000D4A035A200211C20FFF73AFB36A2012143
:1040B0000320FFF735FB01212820A269FFF7F7FC59
:1040C00033A202210320FFF72BFB02212820AA693B
:1040D000FFF7EDFC032130A20846FFF721FB032187
:1040E0002820B269FFF7E3FC2DA204210320FFF78B
:1040F00017FB04212820BA69FFF7D9FC2AA2052161
:104100000320FFF70DFB05212820D8F80020FFF73A
:10411000CEFC27A206210320FFF702FB0621282060
:10412000D9F80020FFF7C3FC23A207210320FFF7E3
:10413000F7FADAF81400072182692820FFF7B7FCA4
:1041400002F0B4FB032803D0642002F061FCA8E76E
:1041500002F0ACFB0028FBD1BDE8F087784E0020D0
:10416000C84E0020184F0020684F00200850002043
:1041700058500020385100204D6F746F725F6D658C
:104180007373616765000000434D5F313A000000C2
:10419000434D5F323A000000434D5F333A00000068
:1041A000434D5F343A000000596177313A00000016
:1041B000596177323A0000007468756D6200000042
:1041C0002DE9F0470025A946A846AA46012428461D
:1041D000FFF724FA4C4F386802F028FD4B4EE1B24D
:1041E0002A220320FFF782FA49A200211C20FFF7B0
:1041F00097FA4BA201210A20FFF792FA4AA2022164
:104200000A20FFF78DFA4AA203210A20FFF788FA55
:1042100049A204210A20FFF783FA49A205210A20B6
:10422000FFF77EFA46A206210A20FFF779FA46A296
:1042300007210A20FFF774FA02F038FB0028FBD0B0
:10424000142002F09DF802F031FB707002F02EFB9A
:104250000028FBD1642002F093F87078012808D080
:1042600003280BD004281DD002F020FB052832D0F3
:1042700033E0641C082C30D101242EE0012C06D040
:10428000022C06D0032C07D0042C26D107E0643D75
:1042900010E0A9F1640011E0A8F1640013E0AAF1B4
:1042A000640015E0052C18D2DFE804F01703060BB4
:1042B000100064352DB210E009F164000FFA80F9A6
:1042C0000BE008F164000FFA80F806E00AF16400E0
:1042D0000FFA80FA01E0072C09D0534642464946BE
:1042E000284603F0BDFB0A2002F092FB77E702F0BC
:1042F000DDFA0028FBD1386802F07CFCBDE8F0470D
:104300000020FFF78BB900007C010020780100201D
:10431000706F7765725F6D6573736167653A0000F2
:104320004D6F746F723100004D6F746F72323A00CE
:104330004D6F746F72333A004D6F746F72343A0080
:104340004E756C6C3A00000052657475726E3A00DE
:10435000FEE70000044909780A2901D2C8B2704773
:10436000FDD901F16401F9E7DC500020D0ED031A1A
:10437000C0ED041AD0ED020AC0ED030A90ED000A68
:1043800090ED011A30EE410A80ED020A90F83C10DF
:10439000012901D0E9B144E090ED061A30EE602A1F
:1043A00021EE001A80ED081AD0ED052A02EE821ADD
:1043B000B0EE002A00EEC20AD0ED070A30EE210A64
:1043C00000EE801A90ED0A0A31EE000A80ED0A0A2A
:1043D00027E090ED081A31EE001A80ED081AD0EDB2
:1043E000091AB4EEE11AF1EE10FA06DCF1EE611AE8
:1043F000B4EEE11AF1EE10FA01D2C0ED081A90ED18
:10440000051AD0ED061A90ED082A21EE001A30EEBA
:10441000600AD0ED070A01EE821A00EE801A80EDE4
:104420000A1AD0ED0A0A90ED0B0AF4EEC00AF1EE7A
:1044300010FA06DCB1EE400AF4EEC00AF1EE10FA12
:1044400001D280ED0A0A70479FED080A80ED000A4C
:1044500080ED010A80ED020A80ED030A80ED040A76
:1044600080ED080A80ED0A0A704700000000000095
:10447000002801DC404200B27047000070B5002007
:10448000FFF7CCF8234C244D244E25A200211C20FC
:10449000FFF746F926A201210320FFF741F9227810
:1044A00001213620FFF76AF922A202210320FFF73B
:1044B00037F9628802213620FFF7F9FA03211EA29C
:1044C0000846FFF72DF9627803213620FFF756F9E9
:1044D0001BA204210320FFF723F92A880421362098
:1044E000FFF7E5FA18A205210320FFF719F9307844
:1044F000052102093620FFF7DAFA02F0D7F903287E
:1045000003D0642002F084FABFE702F0CFF900285C
:10451000FBD170BDDC50002024510020D5000020CC
:10452000526F626F745F6D65737361676500000041
:1045300049443A0048503A004C6576656C3A0000B0
:104540005072655F48503A00487572745F74703AF3
:104550000000000010B504462020FFF70FFB2046A6
:10456000BDE81040FFF70ABB10B504468120FFF7F5
:1045700005FB2046BDE81040FFF700BB40F04000BF
:10458000FFF7FCBA10B504468D20FFF7F7FA44F0A8
:104590001000BDE81040FFF7F1BA10B50446DA206C
:1045A000FFF7ECFA44F00200BDE81040FFF7E6BA6E
:1045B00040F0C000FFF7E2BA10B50446D520FFF77F
:1045C000DDFA2046BDE81040FFF7D8BA10B5044622
:1045D000D320FFF7D3FA2046BDE81040FFF7CEBA4C
:1045E00040F0AE00FFF7CABA40F0A400FFF7C6BA29
:1045F00040F0A600FFF7C2BA10B50446A820FFF7A6
:10460000BDFA2046BDE81040FFF7B8BA10B5044621
:10461000D920FFF7B3FA2046BDE81040FFF7AEBA45
:1046200040F0A000FFF7AABA10B50446DB20FFF760
:10463000A5FA2046BDE81040FFF7A0BA70B51B4CA4
:10464000A520A4F1C80520701620608000202071EC
:10465000A4F14800816C2960B0F84C00A8800621C4
:104660002846FCF7FEFA40F20130E08040F20110EB
:1046700020810F4800786081FFF76CFEA0816F21D8
:1046800004F11000FCF7B4FB1822A11D681DFBF714
:104690004FFE24212846FCF7D3FA2946BDE8704096
:1046A0004FF47A73C8220348FEF712BF405400202B
:1046B000DC50002094030020642002F0A9F9FBE7FD
:1046C00010B5502080F31188BFF34F8FBFF36F8F69
:1046D00004F09EF918B104494FF0805008600020A2
:1046E00080F3118810BD000004ED00E030B593B0F8
:1046F00030216846FBF735FE14210CA8FBF731FE8C
:1047000020480025016841F080510160006800F0F8
:10471000805011901C48016841F4404101600068DC
:10472000022400F440401190012000900004019008
:104730008001CDE9064006200890B420CDE90904A7
:1047400004200B906846FEF71FF808B172B6FEE72A
:10475000FDF7D6FE08B172B6FEE70CA90F2081E87E
:1047600031004FF4A0500F904FF48050109005216D
:104770000CA8FDF7FDFE002801D072B6FEE713B0CD
:1047800030BD00004038024000700040054801681C
:1047900041F47001016003494FF000608039086006
:1047A0007047000088ED00E00148FEF7D0BA000035
:1047B000540500200148FEF7CABA00009402002008
:1047C00010B5FFF71FFABDE810400148FEF7BFBA69
:1047D00014030020F0B50268254C264D264E274FC5
:1047E000274B4FF0804CA04209D0604507D0A8422B
:1047F00005D0B04203D0B84201D0984204D122F093
:10480000700E4A6842EA0E02A0421BD0604519D0E1
:10481000A84217D0B04215D0B84213D0984211D058
:10482000184DA8420ED0184DA8420BD0174DA842E3
:1048300008D0174DA84205D0164DA84202D0164DFB
:10484000A84203D122F44075CA682A434D6922F078
:1048500080022A4302608A68C2620A688262A042B9
:1048600001D0984201D10969016301214161F0BD84
:10487000000001400004004000080040000C00401F
:104880000004014000400140004401400048014054
:1048900000180040001C00400020004010B501F04E
:1048A0001F030121046A99408C430462016A9A4003
:1048B0001143016210BD10B5846842EA032224F45A
:1048C0007F440A432243826010BD826822F0700256
:1048D0000A4342F00701816070470000F0B5026AA8
:1048E00022F001020262036A42688469124E24F0D7
:1048F00073050C682C4323F002058B682B430D4D88
:10490000A84201D0B04205D123F00807CB683B4351
:1049100023F00403A84201D0B04205D14D6922F42E
:10492000407215438A692A43426084614968416341
:104930000362F0BD0000014000040140F0B5026ACE
:1049400022F010020262026A436884690D6824F44E
:10495000E64444EA05248D6822F0200242EA05126A
:104960000F4D104EA84201D0B04206D1CF6822F0C0
:10497000800242EA071222F04002A84201D0B0426F
:1049800007D14D6923F4406343EA85038D6943EA07
:10499000850343608461496881630262F0BD000061
:1049A0000000014000040140F0B5026A22F4807268
:1049B0000262026A4368C46922F4007224F073053B
:1049C0000C68124E2C438D6842EA05220E4DA84217
:1049D00001D0B04206D1CF6822F4006242EA072239
:1049E00022F48062A84201D0B04207D14D6923F47D
:1049F000405343EA05138D6943EA05134360C461DC
:104A00004968C1630262F0BD00000140000401403A
:104A100030B5026A22F480520262046A4268C369B5
:104A20000D6823F4E64343EA05238D6824F400541B
:104A300044EA0534084DA84202D0084DA84204D1EA
:104A40004D6922F4804242EA85124260C36149689E
:104A50000164046230BD0000000001400004014018
:104A600010B5036A046A24F001040462846924F026
:104A7000F00444EA021423F00A020A438461026249
:104A800010BD10B5036A23F0100303628369046A42
:104A900023F4704343EA023224F0A00343EA0111F5
:104AA0008261016210BD10B5806B0021C185C18497
:104AB000FEF72FFB10BD70B5846B2068406994F839
:104AC0003910C0F3C0100025212904D118B1E584A4
:104AD000204600F046F82068406994F83A10C0F388
:104AE0008010222904D118B1E585204600F02BF86A
:104AF000E06B40F01000E0632046FEF70AFB70BD5B
:104B000010B50146806B09680968C90513D40021F6
:104B1000C1850168CA6822F48072CA6001684A6966
:104B200022F001024A6101684A6922F040024A61AA
:104B3000202180F83A10FEF7C9FC10BD10B5806B3B
:104B4000FEF7C5FC10BD0168CA6822F49072CA6005
:104B500001684A6922F001024A61202180F83A1076
:104B600070470168CA6822F0C002CA60202180F83C
:104B70003910704710B590F83A10222901D0022060
:104B800010BD8168B1F5805F11D00169002901680D
:104B90001FD0496801F07F03816A4A1C82620B7052
:104BA000C18D491E0904090CC18518D02BE002698A
:104BB000816A002A0268526805D0D2B20A80816AEE
:104BC000491C8162ECE7C2F308020A80816A891CF1
:104BD000F7E74A68816A4B1C83620A70E0E7016864
:104BE000CA6822F02002CA600168CA6822F4807292
:104BF000CA6001684A6922F001024A61202180F8F6
:104C00003A10FEF763FC002010BD00002DE9F041D2
:104C1000044600680169E26821F4405111430161D2
:104C20002169A068E269084361691143084321686A
:104C3000CA6849F20C639A430243CA60206841691A
:104C4000A26921F4407111434161E069192764258B
:104C50003226B0F5004F354A354920684FF000083C
:104C600006D0884201D0904236D1FDF74BFD35E0A9
:104C7000884201D0904202D1FDF744FD01E0FDF7EA
:104C800031FD61684A18A0FB070148EB0803FBF7F8
:104C90000BFB0146B0FBF5F00201B1FBF5F06FF044
:104CA0001803584301EB800006EBC000B0FBF5F0A1
:104CB00000F0F80002EB4002B1FBF5F0584301EBC5
:104CC000800006EBC000B0FBF5F000F007002168A3
:104CD00010448860BDE8F081FDF704FD61688B0F2A
:104CE0008A00A0FB0701FBF7DFFA0146B0FBF5F0F5
:104CF0006FF01802504301EB800006EB0010B0FB90
:104D0000F5F000F0F002B1FBF5F002EB0012B1FBA0
:104D1000F5F06FF01803584301EB800006EB00102C
:104D2000B0FBF5F000F00F00D1E7000000140140E7
:104D30000010014090F83910212901D0022070475D
:104D40008168B1F5805F016A0BD04A1C026202687B
:104D500009785160C18C491E0904090CC1840ED028
:104D600017E009880268C1F3080151600169002950
:104D7000016A02D0491C0162ECE7891CFBE701686B
:104D8000CA6822F08002CA600068C16841F0400130
:104D9000C160002070472DE9F041984617460E4645
:104DA0000446069D1DE0681C1BD02DB1FDF7EAFAF4
:104DB000A0EB0800A84214D92068C16821F4D07182
:104DC000C1602068416921F001014161202084F81F
:104DD000390084F83A00002084F838000320BDE848
:104DE000F0812068006836EA000004D00020B84254
:104DF000D9D00020F3E70120F9E700000148FEF7D1
:104E000089B900005403002010B50448FEF782F968
:104E1000BDE81040014800F009B8000094030020EC
:104E20000148FEF777B90000D403002038B50168C7
:104E300004460868C043C0061CD40868486800904F
:104E40002046FEF73AF90C4800684068C0F180003F
:104E5000C5B20948603001F099FF07482946603023
:104E6000FBF77FFA2046BDE83840034980226031D5
:104E7000FEF7E0BA38BD000074040020FEE730B54C
:104E80000C46050013D0022C11D94FF6FF72A11E5B
:104E9000FCF70AF92919C2B211F8023C9A4206D16C
:104EA00011F8011CB1EB102F01D1012030BD002001
:104EB00030BD30B50C4605000ED0022C0CD9601E5A
:104EC00081B2FF222846FCF705F9291911F8011CC7
:104ED000814201D1012030BD002030BD0FB4084B0C
:104EE00010B504A902AA039800F02CFD044602A9FB
:104EF000002000F003FE204610BC5DF814FB00000B
:104F0000FD5A000803B401984100009850EAC120FE
:104F100018BF04204A0D18BF40F0010040F2FF7294
:104F2000B2EB515F08BF40F00200012808BF052026
:104F300002B070470907090E002804DB00F1E020E9
:104F400080F80014704700F00F0000F1E02080F8B6
:104F5000141D7047004870479001002000000000B9
:104F600010B52F499FED2C1B2DED020B84B0059839
:104F700020F000408842D8BF9DED040B2DDD29496B
:104F8000884209D1049840B94FF0010000F0D4FCE8
:104F900000F0A2FC06B010BD05DB9DED040B00F097
:104FA0008FFC06B010BD68469DED040B00F0A0F824
:104FB00010F0030004BF9DED021B9DED000B0CD013
:104FC00001280ED09DED021B9DED000B022817D08D
:104FD000012000F0DDFB06B010BD00F0A5FA06B020
:104FE00010BD9DED021B9DED000B012000F0D0FBDC
:104FF00051EC100B81F0004106B041EC100B10BDDC
:1050000000F092FA51EC100B81F0004106B041EC37
:10501000100B10BD000000000000000000000000A8
:10502000FB21E93F0000F07F10B52F499FED2C1BBD
:105030002DED020B84B0059820F000408842DCBFC3
:1050400000209DED040B32DD2849884209D10498E7
:1050500040B94FF0010000F06FFC00F03DFC06B0DD
:1050600010BD05DB9DED040B00F02AFC06B010BD61
:1050700068469DED040B00F03BF810F0030011D0E2
:10508000012818D09DED021B9DED000B02281AD0BF
:1050900000F04AFA51EC100B81F0004106B041ECEF
:1050A000100B10BD9DED021B9DED000B012000F0CB
:1050B0006FFB06B010BD9DED021B9DED000B00F0D7
:1050C00033FA06B010BD012000F062FB51EC100B6A
:1050D00081F0004106B041EC100B10BD0000000053
:1050E0000000000000000000FB21E93F0000F07F0D
:1050F0002DE9F14F04462DED020B2DED088B8AB002
:105100009FEDE70B80ED020B139EE74826F000456C
:1051100085420ADC9DED120B002084ED000B0AB0E5
:10512000BDEC088B03B0BDE8F08FE0489FEDE0AB2D
:105130009FEDE1BBA84247DDE14F9FEDE39B9FED73
:10514000E48B9DED120B53EC1A2B51EC100B002E3F
:105150001CDDFBF7CBF941EC100BBD4208D053EC42
:105160001B2B51EC100BFBF7C1F9C4E900010BE05C
:1051700053EC192B51EC100BFBF7B8F953EC182B2F
:10518000FBF7B4F9C4E900010120C8E7FBF70DF90A
:1051900041EC100BBD4208D053EC1B2B51EC100B13
:1051A000FBF703F9C4E900010BE053EC192B51ECB8
:1051B000100BFBF7FAF853EC182BFBF7F6F8C4E9E1
:1051C00000014FF0FF30AAE7C348A84279DB9DED0C
:1051D000120B51EC100B01F043F941EC180B9FED51
:1051E000C00B53EC102BFBF787F99FEDBF1B53EC63
:1051F000112BFBF7DAF8FBF77EFA0746FBF75DFAAF
:1052000041EC190B53EC1A2BFBF776F953EC182BE6
:10521000FBF76FF941EC180B53EC1B2B51EC190BFE
:10522000FBF76AF9DFF8C8A241EC100B4FEA1558FA
:105230000125FA4453EC102B51EC180BFBF756F9EF
:10524000032DC4E900013DD0C1F30A5005EB45111F
:10525000A8EB00001139814234DA0AEB051BB0EEED
:1052600048AA9BED000BF0EE68AA53EC102B51EC12
:10527000190BFBF741F941EC1B0B51EC1A0B53ECEA
:105280001B2BFBF733F941EC180B51EC1A0B53ECC9
:10529000182BFBF72BF953EC1B2BFBF727F99BED96
:1052A000020B41EC1A0B53EC102B51EC190BFBF7D2
:1052B00023F953EC1A2BFBF719F941EC100B6D1C79
:1052C000B8E70EE0002EA8BF3846BFF628AF94ED31
:1052D000000B51EC100B81F00041C4E90001784251
:1052E0001DE7C6F3130040F4801EC6F30A50A0F277
:1052F000F530471100F01F05C5F12000DDF848B07A
:1053000008900020069007900520EC467949002D72
:1053100007EB0002794408BF51F8221009D051F878
:10532000223001EB8201AB404A68089922FA01F170
:105330001943A1FB0E26A1FB0B131A449A4234BF5A
:105340000123002303EB06080CEB8003D3E901A63D
:105350000E448E4234BF0121002192448A4411B18F
:10536000924502D903E0924501D2012100E00021DB
:10537000C3E901A641444CF82010011EA0F1010030
:10538000C4DC029800F10050850F0298DDE9036744
:105390008000DDF81480FBF790F941EC1A0B3046E1
:1053A000FBF79CF99FED541B53EC112BFBF7A4F872
:1053B00041EC1B0B3846FBF791F99FED511B53EC69
:1053C000112BFBF799F841EC180B4046FBF786F9D7
:1053D0009FED4D1B53EC112BFBF78EF841EC190B95
:1053E00051EC180B53EC192BFAF7DFFF53EC1B2B86
:1053F000FAF7DBFF53EC1A2BFAF7D7FFCDE90801D8
:10540000002008909DED080B53EC1A2B51EC100B6B
:10541000FBF76CF853EC1B2BFBF768F853EC182BDD
:10542000FBF764F853EC192BFBF763F89FED381B7F
:1054300053EC112BFBF760F89FED370B41EC180B89
:1054400053EC102B9DED080B51EC100BFBF754F8AF
:1054500053EC182BFAF7A9FF9FED310B41EC180B19
:1054600053EC102B9DED080B51EC100BFBF744F89F
:1054700053EC182BFAF799FF41EC100B139810F02E
:10548000004F06D06D4251EC100B81F0004141EC11
:10549000100B284684ED000B41E6000000000000E0
:1054A0000000000000000000FB21E93F7CD9024021
:1054B00000004054FB21F93F3163621A61B4D03DD2
:1054C000FB21F93F000000000000601A61B4D03DEC
:1054D0007370032E8A19A33BFB21394100000000A1
:1054E00083C8C96D305FE43F000000000000E03F6A
:1054F0004248000090470000000000000000103EFD
:10550000000000000000103C000000000000103A05
:10551000182D4454FB21F93D3326A611460B113CAE
:1055200000000054FB21F93D10B52DED040B2DEDCD
:10553000088B82B0B0EE419AF0EE619A0B9820F0A1
:1055400000449FED4BABB4F1795F11DA9DED0A0B8E
:1055500051EC100BFBF7CFF8002801BFB0EE4A0A60
:10556000F0EE6A0A02B0BDEC088B04BF04B010BDB7
:105570009DED0A0B53EC102B51EC100BFAF7BCFF0E
:1055800041EC180B3C480621B0EE480AF0EE680AE0
:10559000784400F081F853EC182B51EC100BFAF71B
:1055A000ABFF9DED0A0B41EC1B0B53EC192B51EC9F
:1055B000100BFAF7A1FF41EC190B53EC1B2B51EC2C
:1055C000180BFAF799FF53EC192BFAF78FFF9FEDA1
:1055D0002C0B41EC190B53EC102B51EC180BFAF778
:1055E0008BFF41EC100B2848844210DA53EC192B46
:1055F00051EC100BFAF77AFF53EC1A2BFAF779FFFC
:1056000041EC100B02B0BDEC088B04B010BD1F487C
:10561000A042BCBF9FED1E1B8DED001B06DBA4F559
:1056200000100190002000909DED001B51EC100B2C
:1056300053EC112BFAF75AFF9DED000B41EC180BC0
:1056400053EC102B51EC1A0BFAF750FF41EC1A0BEC
:1056500053EC192B51EC180BFAF748FF53EC1A2BAB
:10566000FAF747FF41EC100BCCE700000000000008
:10567000000000000000F03FB44400000000000003
:10568000000000000000E03F3333D33F0000E93F5B
:10569000000000000000D23F70B504462DED028BE3
:1056A0004D1E00EBC500B0EE408AF0EE608A90ED32
:1056B000000B35F0060017D053EC182B51EC100BF3
:1056C000FAF71AFF41EC100B6D1E04EBC50090EDCC
:1056D000001B51EC100B53EC112BFAF766FE41EC5A
:1056E000100B35F00600E7D1022D36D0042D1CD06A
:1056F000062D1CBFBDEC028B70BD53EC182B51EC7A
:10570000100BFAF7F9FE94ED0A1B53EC112BFAF784
:105710004CFE53EC182BFAF7EFFE94ED081B53ECFC
:10572000112BFAF742FE41EC100B53EC182B51EC05
:10573000100BFAF7E1FE94ED061B53EC112BFAF770
:1057400034FE53EC182BFAF7D7FE94ED040B53EC10
:10575000102BFAF72AFE41EC100B53EC182B51ECEE
:10576000100BFAF7C9FE94ED021B53EC112BFAF75C
:105770001CFE53EC182BFAF7BFFE94ED001B53EC04
:10578000112BFAF712FEBDEC028B41EC100B70BD31
:1057900031B504462DED040B2DED0A8BB0EE41BA68
:1057A000F0EE61BA0B989DED0A0B20F00040B0F1CD
:1057B000795F0DDA51EC100BFFF7A4FB042808BF4A
:1057C00000F09AF89DED0A0BBDEC0A8B05B030BDD8
:1057D00053EC102B51EC100BFAF78EFE41EC180B2A
:1057E0009DED0A0B53EC182B51EC100BFAF784FECD
:1057F00041EC190B2C48B0EE480AF0EE680A05217E
:105800007844FFF749FF9FED2ACBB0EE40AAF0EEB7
:1058100060AA9CB353EC1C2B51EC190BFAF76CFEED
:1058200041EC1C0B53EC1A2B51EC190BFAF764FEEC
:105830009FED210B41EC190B53EC102B51EC1B0B82
:10584000FAF75AFE53EC192BFAF750FE53EC182BCB
:10585000FAF752FE53EC1B2BFAF748FE53EC1C2BC5
:10586000FAF744FE9DED0A1B53EC112BFAF741FEAB
:10587000BDEC0A8B05B041EC100B30BDFFE753ECDB
:105880001A2B51EC180BFAF737FE53EC1C2BFAF7D6
:105890008CFD53EC192BFAF72FFE9DED0A1B53ECF0
:1058A000112BFAF782FDE3E73C4300000000000003
:1058B000495555555555C5BF000000000000E03F53
:1058C00010B553EC102B51EC100BFAF76EFD41ECB8
:1058D000100B10BD000000009FED050B10B553EC40
:1058E000102B51EC100BFAF779FE41EC100B10BDA8
:1058F00000000000000000009FED050B10B553EC08
:10590000102B51EC100BFAF7F7FD41EC100B10BD0A
:10591000000000000000001002E008C8121F08C1CB
:10592000002AFAD170477047002001E001C1121F20
:10593000002AFBD170470000014908607047000051
:10594000900100202DE9FF4F8BB09A460F46054687
:10595000002606E025280BD052460D9990476D1C75
:10596000761C28780028F5D10FB03046BDE8F08FBE
:105970000024A0460122604900E0044315F8013FDD
:10598000203B02FA03F00842F7D128782E2817D1DD
:1059900015F8010F44F004042A280ED06FF02F02EE
:1059A0002878A0F1300109290AD808EB880102EB18
:1059B000410100EB01086D1CF2E757F8048B6D1CE8
:1059C000287869283ED006DC0028CDD063280BD08B
:1059D000642804D136E0732810D075284BD0524685
:1059E0000D999047761C85E017F8040B8DF80000A0
:1059F00000208DF80100E946012003E057F8049BE0
:105A00004FF0FF3061074FF0000401D40AE0641C3E
:105A100044450DDA8442FADB19F804100029F6D166
:105A200006E0641C8442FCDB19F804100029F8D15C
:105A3000264404E019F8010B52460D999047641E64
:105A4000F8D257E001CF4FF00A0B002802DA4042AB
:105A50002D2102E0210504D52B218DF824100121F0
:105A600003E0E10705D02021F7E70DF120090891B7
:105A70000CE00021F9E701CF4FF00A0BF9E7594696
:105A8000FAF7A0FE01F1300209F8012D0028F6D145
:105A9000ADEB090000F1200B600701D44FF00108C5
:105AA000D84502DDA8EB0B0000E000208046002472
:105AB00006E009A85246005D0D999047641C761CCB
:105AC00008988442F5DB04E0302052460D99904757
:105AD000761CB8F10001A8F10108F5DC05E019F821
